{
  "address": "0x6Af69FFD2fC4D9307ef63cbc6eDE85262c706487",
  "abi": [
    {
      "inputs": [
        {
          "internalType": "string",
          "name": "_name",
          "type": "string"
        },
        {
          "internalType": "string",
          "name": "_symbol",
          "type": "string"
        },
        {
          "internalType": "uint256",
          "name": "_tokenPrice",
          "type": "uint256"
        },
        {
          "internalType": "uint256",
          "name": "_supply",
          "type": "uint256"
        },
        {
          "internalType": "string",
          "name": "_imagem",
          "type": "string"
        },
        {
          "internalType": "uint256",
          "name": "_goal",
          "type": "uint256"
        }
      ],
      "name": "create",
      "outputs": [],
      "stateMutability": "nonpayable",
      "type": "function"
    },
    {
      "inputs": [],
      "name": "returnCooperativesArray",
      "outputs": [
        {
          "internalType": "contract Cooperative[]",
          "name": "",
          "type": "address[]"
        }
      ],
      "stateMutability": "view",
      "type": "function"
    }
  ],
  "transactionHash": "0xc9370737905bf2f29dbb166e266448b1f4c8e27b3c77a875f9680b63e2d353f0",
  "args": [],
  "numDeployments": 1,
  "solcInputHash": "b65baf2ae1857037a536bb0136fbd917",
  "bytecode": "0x608060405234801561001057600080fd5b506113c5806100206000396000f3fe608060405234801561001057600080fd5b50600436106100365760003560e01c806354d049ac1461003b578063951fba2e14610050575b600080fd5b61004e61004936600461021e565b61006e565b005b61005861010c565b60405161006591906102c2565b60405180910390f35b60003390506000878787878786886040516100889061016e565b6100989796959493929190610355565b604051809103906000f0801580156100b4573d6000803e3d6000fd5b50600080546001810182559080527f290decd9548b62a8d60345a988386fc84ba6bc95484008f6362f93160ef3e5630180546001600160a01b0319166001600160a01b03929092169190911790555050505050505050565b6060600080548060200260200160405190810160405280929190818152602001828054801561016457602002820191906000526020600020905b81546001600160a01b03168152600190910190602001808311610146575b5050505050905090565b610fd5806103bb83390190565b634e487b7160e01b600052604160045260246000fd5b600082601f8301126101a257600080fd5b813567ffffffffffffffff808211156101bd576101bd61017b565b604051601f8301601f19908116603f011681019082821181831017156101e5576101e561017b565b816040528381528660208588010111156101fe57600080fd5b836020870160208301376000602085830101528094505050505092915050565b60008060008060008060c0878903121561023757600080fd5b863567ffffffffffffffff8082111561024f57600080fd5b61025b8a838b01610191565b9750602089013591508082111561027157600080fd5b61027d8a838b01610191565b9650604089013595506060890135945060808901359150808211156102a157600080fd5b506102ae89828a01610191565b92505060a087013590509295509295509295565b6020808252825182820181905260009190848201906040850190845b818110156103035783516001600160a01b0316835292840192918401916001016102de565b50909695505050505050565b6000815180845260005b8181101561033557602081850181015186830182015201610319565b506000602082860101526020601f19601f83011685010191505092915050565b60e08152600061036860e083018a61030f565b828103602084015261037a818a61030f565b9050876040840152866060840152828103608084015261039a818761030f565b6001600160a01b039590951660a0840152505060c001529594505050505056fe60806040523480156200001157600080fd5b5060405162000fd538038062000fd583398101604081905262000034916200026c565b86866003620000448382620003cc565b506004620000538282620003cc565b5050600580546001600160a01b0385166001600160a01b031991821681179092556006805490911673fc2acc124bd321615487265f1115c7c16a8f8d4a179055620000b39150620000ad86670de0b6b3a7640000620004ae565b620000dc565b60078590556009849055600a620000cb8482620003cc565b5060085550620004e4945050505050565b6001600160a01b038216620001375760405162461bcd60e51b815260206004820152601f60248201527f45524332303a206d696e7420746f20746865207a65726f206164647265737300604482015260640160405180910390fd5b80600260008282546200014b9190620004ce565b90915550506001600160a01b038216600081815260208181526040808320805486019055518481527fddf252ad1be2c89b69c2b068fc378daa952ba7f163c4a11628f55a4df523b3ef910160405180910390a35050565b505050565b634e487b7160e01b600052604160045260246000fd5b600082601f830112620001cf57600080fd5b81516001600160401b0380821115620001ec57620001ec620001a7565b604051601f8301601f19908116603f01168101908282118183101715620002175762000217620001a7565b816040528381526020925086838588010111156200023457600080fd5b600091505b8382101562000258578582018301518183018401529082019062000239565b600093810190920192909252949350505050565b600080600080600080600060e0888a0312156200028857600080fd5b87516001600160401b0380821115620002a057600080fd5b620002ae8b838c01620001bd565b985060208a0151915080821115620002c557600080fd5b620002d38b838c01620001bd565b975060408a0151965060608a0151955060808a0151915080821115620002f857600080fd5b50620003078a828b01620001bd565b60a08a015190945090506001600160a01b03811681146200032757600080fd5b8092505060c0880151905092959891949750929550565b600181811c908216806200035357607f821691505b6020821081036200037457634e487b7160e01b600052602260045260246000fd5b50919050565b601f821115620001a257600081815260208120601f850160051c81016020861015620003a35750805b601f850160051c820191505b81811015620003c457828155600101620003af565b505050505050565b81516001600160401b03811115620003e857620003e8620001a7565b6200040081620003f984546200033e565b846200037a565b602080601f8311600181146200043857600084156200041f5750858301515b600019600386901b1c1916600185901b178555620003c4565b600085815260208120601f198616915b82811015620004695788860151825594840194600190910190840162000448565b5085821015620004885787850151600019600388901b60f8161c191681555b5050505050600190811b01905550565b634e487b7160e01b600052601160045260246000fd5b8082028115828204841417620004c857620004c862000498565b92915050565b80820180821115620004c857620004c862000498565b610ae180620004f46000396000f3fe608060405234801561001057600080fd5b50600436106100f55760003560e01c80637ff9b59611610097578063b968a3a411610066578063b968a3a4146101e1578063c1aef4f2146101fc578063d3986f0814610204578063dd62ed3e1461021757600080fd5b80637ff9b596146101ab57806395d89b41146101b3578063a457c2d7146101bb578063a9059cbb146101ce57600080fd5b806323b872dd116100d357806323b872dd1461014d578063313ce56714610160578063395093511461016f57806370a082311461018257600080fd5b806306fdde03146100fa578063095ea7b31461011857806318160ddd1461013b575b600080fd5b61010261022a565b60405161010f91906108c7565b60405180910390f35b61012b610126366004610931565b6102bc565b604051901515815260200161010f565b6002545b60405190815260200161010f565b61012b61015b36600461095b565b6102d6565b6040516012815260200161010f565b61012b61017d366004610931565b6102fa565b61013f610190366004610997565b6001600160a01b031660009081526020819052604090205490565b60075461013f565b61010261031c565b61012b6101c9366004610931565b61032b565b61012b6101dc366004610931565b6103ab565b6005546040516001600160a01b03909116815260200161010f565b6101026103b9565b61012b6102123660046109b9565b6103c8565b61013f6102253660046109e5565b6104b4565b60606003805461023990610a0f565b80601f016020809104026020016040519081016040528092919081815260200182805461026590610a0f565b80156102b25780601f10610287576101008083540402835291602001916102b2565b820191906000526020600020905b81548152906001019060200180831161029557829003601f168201915b5050505050905090565b6000336102ca8185856104df565b60019150505b92915050565b6000336102e4858285610603565b6102ef85858561067d565b506001949350505050565b6000336102ca81858561030d83836104b4565b6103179190610a5f565b6104df565b60606004805461023990610a0f565b6000338161033982866104b4565b90508381101561039e5760405162461bcd60e51b815260206004820152602560248201527f45524332303a2064656372656173656420616c6c6f77616e63652062656c6f77604482015264207a65726f60d81b60648201526084015b60405180910390fd5b6102ef82868684036104df565b6000336102ca81858561067d565b6060600a805461023990610a0f565b6000806103d58484610821565b90506001811515146104295760405162461bcd60e51b815260206004820152601960248201527f66616c6861206e6f20656e76696f20646f7320757364742773000000000000006044820152606401610395565b6005546040516323b872dd60e01b81526001600160a01b039182166004820152908416602482015260448101859052309081906323b872dd906064016020604051808303816000875af1158015610484573d6000803e3d6000fd5b505050506040513d601f19601f820116820180604052508101906104a89190610a72565b50600195945050505050565b6001600160a01b03918216600090815260016020908152604080832093909416825291909152205490565b6001600160a01b0383166105415760405162461bcd60e51b8152602060048201526024808201527f45524332303a20617070726f76652066726f6d20746865207a65726f206164646044820152637265737360e01b6064820152608401610395565b6001600160a01b0382166105a25760405162461bcd60e51b815260206004820152602260248201527f45524332303a20617070726f766520746f20746865207a65726f206164647265604482015261737360f01b6064820152608401610395565b6001600160a01b0383811660008181526001602090815260408083209487168084529482529182902085905590518481527f8c5be1e5ebec7d5bd14f71427d1e84f3dd0314c0f7b2291e5b200ac8c7c3b925910160405180910390a3505050565b600061060f84846104b4565b90506000198114610677578181101561066a5760405162461bcd60e51b815260206004820152601d60248201527f45524332303a20696e73756666696369656e7420616c6c6f77616e63650000006044820152606401610395565b61067784848484036104df565b50505050565b6001600160a01b0383166106e15760405162461bcd60e51b815260206004820152602560248201527f45524332303a207472616e736665722066726f6d20746865207a65726f206164604482015264647265737360d81b6064820152608401610395565b6001600160a01b0382166107435760405162461bcd60e51b815260206004820152602360248201527f45524332303a207472616e7366657220746f20746865207a65726f206164647260448201526265737360e81b6064820152608401610395565b6001600160a01b038316600090815260208190526040902054818110156107bb5760405162461bcd60e51b815260206004820152602660248201527f45524332303a207472616e7366657220616d6f756e7420657863656564732062604482015265616c616e636560d01b6064820152608401610395565b6001600160a01b03848116600081815260208181526040808320878703905593871680835291849020805487019055925185815290927fddf252ad1be2c89b69c2b068fc378daa952ba7f163c4a11628f55a4df523b3ef910160405180910390a3610677565b6006546005546007546000926001600160a01b039081169283926323b872dd928792169061084f9089610a94565b6040516001600160e01b031960e086901b1681526001600160a01b03938416600482015292909116602483015260448201526064016020604051808303816000875af11580156108a3573d6000803e3d6000fd5b505050506040513d601f19601f820116820180604052508101906102ef9190610a72565b600060208083528351808285015260005b818110156108f4578581018301518582016040015282016108d8565b506000604082860101526040601f19601f8301168501019250505092915050565b80356001600160a01b038116811461092c57600080fd5b919050565b6000806040838503121561094457600080fd5b61094d83610915565b946020939093013593505050565b60008060006060848603121561097057600080fd5b61097984610915565b925061098760208501610915565b9150604084013590509250925092565b6000602082840312156109a957600080fd5b6109b282610915565b9392505050565b600080604083850312156109cc57600080fd5b823591506109dc60208401610915565b90509250929050565b600080604083850312156109f857600080fd5b610a0183610915565b91506109dc60208401610915565b600181811c90821680610a2357607f821691505b602082108103610a4357634e487b7160e01b600052602260045260246000fd5b50919050565b634e487b7160e01b600052601160045260246000fd5b808201808211156102d0576102d0610a49565b600060208284031215610a8457600080fd5b815180151581146109b257600080fd5b80820281158282048414176102d0576102d0610a4956fea26469706673582212201e224108f2ffff36e8153b748a8547a226131b4e54b2a7f486d3d1398edbec6964736f6c63430008110033a2646970667358221220fe31b2fe584a724d871ab7f610d73ad7534500eb3447dabd34612c30de9e216364736f6c63430008110033",
  "devdoc": {
    "kind": "dev",
    "methods": {},
    "version": 1
  },
  "userdoc": {
    "kind": "user",
    "methods": {},
    "version": 1
  },
  "storageLayout": {
    "storage": [
      {
        "astId": 885,
        "contract": "contracts/Cooperative.sol:CooperativeFactory",
        "label": "cooperatives",
        "offset": 0,
        "slot": "0",
        "type": "t_array(t_contract(Cooperative)881)dyn_storage"
      }
    ],
    "types": {
      "t_array(t_contract(Cooperative)881)dyn_storage": {
        "base": "t_contract(Cooperative)881",
        "encoding": "dynamic_array",
        "label": "contract Cooperative[]",
        "numberOfBytes": "32"
      },
      "t_contract(Cooperative)881": {
        "encoding": "inplace",
        "label": "contract Cooperative",
        "numberOfBytes": "20"
      }
    }
  }
}